{"abi":[{"type":"constructor","inputs":[],"stateMutability":"nonpayable"},{"type":"receive","stateMutability":"payable"},{"type":"function","name":"cancel","inputs":[{"name":"_txId","type":"bytes32","internalType":"bytes32"}],"outputs":[],"stateMutability":"nonpayable"},{"type":"function","name":"cancelEmergency","inputs":[{"name":"_target","type":"address","internalType":"address"},{"name":"_func","type":"string","internalType":"string"}],"outputs":[],"stateMutability":"nonpayable"},{"type":"function","name":"emergencyQueued","inputs":[{"name":"","type":"bytes32","internalType":"bytes32"}],"outputs":[{"name":"","type":"bool","internalType":"bool"}],"stateMutability":"view"},{"type":"function","name":"execute","inputs":[{"name":"_target","type":"address","internalType":"address"},{"name":"_value","type":"uint256","internalType":"uint256"},{"name":"_func","type":"string","internalType":"string"},{"name":"_data","type":"bytes","internalType":"bytes"},{"name":"_timestamp_from","type":"uint256","internalType":"uint256"},{"name":"_timestamp_to","type":"uint256","internalType":"uint256"}],"outputs":[{"name":"","type":"bytes","internalType":"bytes"}],"stateMutability":"payable"},{"type":"function","name":"executeEmergency","inputs":[{"name":"_target","type":"address","internalType":"address"},{"name":"_value","type":"uint256","internalType":"uint256"},{"name":"_func","type":"string","internalType":"string"},{"name":"_data","type":"bytes","internalType":"bytes"}],"outputs":[{"name":"","type":"bytes","internalType":"bytes"}],"stateMutability":"payable"},{"type":"function","name":"getEmergencyTxId","inputs":[{"name":"_target","type":"address","internalType":"address"},{"name":"_func","type":"string","internalType":"string"}],"outputs":[{"name":"","type":"bytes32","internalType":"bytes32"}],"stateMutability":"pure"},{"type":"function","name":"getTxId","inputs":[{"name":"_target","type":"address","internalType":"address"},{"name":"_value","type":"uint256","internalType":"uint256"},{"name":"_func","type":"string","internalType":"string"},{"name":"_timestamp_from","type":"uint256","internalType":"uint256"},{"name":"_timestamp_to","type":"uint256","internalType":"uint256"}],"outputs":[{"name":"","type":"bytes32","internalType":"bytes32"}],"stateMutability":"pure"},{"type":"function","name":"owner","inputs":[],"outputs":[{"name":"","type":"address","internalType":"address"}],"stateMutability":"view"},{"type":"function","name":"queue","inputs":[{"name":"_target","type":"address","internalType":"address"},{"name":"_value","type":"uint256","internalType":"uint256"},{"name":"_func","type":"string","internalType":"string"},{"name":"_timestamp_from","type":"uint256","internalType":"uint256"},{"name":"_timestamp_to","type":"uint256","internalType":"uint256"}],"outputs":[{"name":"txId","type":"bytes32","internalType":"bytes32"}],"stateMutability":"nonpayable"},{"type":"function","name":"queueEmergency","inputs":[{"name":"_target","type":"address","internalType":"address"},{"name":"_func","type":"string","internalType":"string"}],"outputs":[{"name":"txId","type":"bytes32","internalType":"bytes32"}],"stateMutability":"nonpayable"},{"type":"function","name":"queued","inputs":[{"name":"","type":"bytes32","internalType":"bytes32"}],"outputs":[{"name":"","type":"uint256","internalType":"uint256"}],"stateMutability":"view"},{"type":"event","name":"Cancel","inputs":[{"name":"txId","type":"bytes32","indexed":true,"internalType":"bytes32"}],"anonymous":false},{"type":"event","name":"CancelEmergency","inputs":[{"name":"target","type":"address","indexed":false,"internalType":"address"},{"name":"func","type":"string","indexed":false,"internalType":"string"}],"anonymous":false},{"type":"event","name":"EmergencyExecute","inputs":[{"name":"txId","type":"bytes32","indexed":true,"internalType":"bytes32"},{"name":"target","type":"address","indexed":true,"internalType":"address"},{"name":"value","type":"uint256","indexed":false,"internalType":"uint256"},{"name":"func","type":"string","indexed":false,"internalType":"string"},{"name":"data","type":"bytes","indexed":false,"internalType":"bytes"},{"name":"timestamp","type":"uint256","indexed":false,"internalType":"uint256"}],"anonymous":false},{"type":"event","name":"EmergencyQueue","inputs":[{"name":"txid","type":"bytes32","indexed":true,"internalType":"bytes32"},{"name":"target","type":"address","indexed":true,"internalType":"address"},{"name":"func","type":"string","indexed":false,"internalType":"string"}],"anonymous":false},{"type":"event","name":"Execute","inputs":[{"name":"txId","type":"bytes32","indexed":true,"internalType":"bytes32"},{"name":"target","type":"address","indexed":true,"internalType":"address"},{"name":"value","type":"uint256","indexed":false,"internalType":"uint256"},{"name":"func","type":"string","indexed":false,"internalType":"string"},{"name":"data","type":"bytes","indexed":false,"internalType":"bytes"},{"name":"timestamp","type":"uint256","indexed":false,"internalType":"uint256"}],"anonymous":false},{"type":"event","name":"Queue","inputs":[{"name":"txId","type":"bytes32","indexed":true,"internalType":"bytes32"},{"name":"target","type":"address","indexed":true,"internalType":"address"},{"name":"value","type":"uint256","indexed":false,"internalType":"uint256"},{"name":"func","type":"string","indexed":false,"internalType":"string"},{"name":"timestamp_from","type":"uint256","indexed":false,"internalType":"uint256"},{"name":"timestamp_to","type":"uint256","indexed":false,"internalType":"uint256"}],"anonymous":false},{"type":"error","name":"AlreadyExecutedError","inputs":[{"name":"txId","type":"bytes32","internalType":"bytes32"}]},{"type":"error","name":"AlreadyQueuedError","inputs":[{"name":"txId","type":"bytes32","internalType":"bytes32"}]},{"type":"error","name":"NotOwnerError","inputs":[]},{"type":"error","name":"NotQueuedError","inputs":[{"name":"txId","type":"bytes32","internalType":"bytes32"}]},{"type":"error","name":"TimestampBadRangeError","inputs":[{"name":"blockTimestamp","type":"uint256","internalType":"uint256"},{"name":"timestamp_from","type":"uint256","internalType":"uint256"},{"name":"timestamp_to","type":"uint256","internalType":"uint256"}]},{"type":"error","name":"TimestampExpiredError","inputs":[{"name":"blockTimestamp","type":"uint256","internalType":"uint256"},{"name":"timestampTo","type":"uint256","internalType":"uint256"}]},{"type":"error","name":"TimestampNotPassedError","inputs":[{"name":"blockTimestmap","type":"uint256","internalType":"uint256"},{"name":"timestampFrom","type":"uint256","internalType":"uint256"}]},{"type":"error","name":"TxFailedError","inputs":[]}],"bytecode":{"object":"0x608060405234801561001057600080fd5b50600080546001600160a01b03191633179055610f14806100326000396000f3fe6080604052600436106100a05760003560e01c80636c102cef116100645780636c102cef1461017f5780638da5cb5b1461019f578063994ead62146101d7578063b724e9fd146101f9578063c4d252f514610219578063e65f56111461023957600080fd5b8063228250c9146100ac5780632788c518146100ec5780634cc232d91461010c57806356ea338f1461014c5780636ae007231461016c57600080fd5b366100a757005b600080fd5b3480156100b857600080fd5b506100d96100c7366004610ab8565b60016020526000908152604090205481565b6040519081526020015b60405180910390f35b6100ff6100fa366004610b36565b610259565b6040516100e39190610bf3565b34801561011857600080fd5b5061013c610127366004610ab8565b60026020526000908152604090205460ff1681565b60405190151581526020016100e3565b34801561015857600080fd5b506100d9610167366004610c26565b6104ca565b6100ff61017a366004610c79565b610500565b34801561018b57600080fd5b506100d961019a366004610d03565b6106cc565b3480156101ab57600080fd5b506000546101bf906001600160a01b031681565b6040516001600160a01b0390911681526020016100e3565b3480156101e357600080fd5b506101f76101f2366004610c26565b610815565b005b34801561020557600080fd5b506100d9610214366004610d03565b6108da565b34801561022557600080fd5b506101f7610234366004610ab8565b610919565b34801561024557600080fd5b506100d9610254366004610c26565b6109e4565b6000546060906001600160a01b03163314610287576040516374a2152760e01b815260040160405180910390fd5b60006102978a8a8a8a88886108da565b600081815260016020526040812054919250036102cf57604051630995c9d560e01b8152600481018290526024015b60405180910390fd5b60008181526001602081905260409091205411156103035760405163bdf9f9cb60e01b8152600481018290526024016102c6565b428481101561032f5760405163035fce5b60e01b815260048101829052602481018690526044016102c6565b8381111561035a576040516392ae26d160e01b815260048101829052602481018590526044016102c6565b6000828152600160205260409020819055606088156103b2578989604051610383929190610d6f565b60405190819003812061039c918a908a90602001610d7f565b60405160208183030381529060405290506103ec565b87878080601f0160208091040260200160405190810160405280939291908181526020018383808284376000920191909152509293505050505b6000808d6001600160a01b03168d846040516104089190610da3565b60006040518083038185875af1925050503d8060008114610445576040519150601f19603f3d011682016040523d82523d6000602084013e61044a565b606091505b50915091508161046d57604051636cda7c0f60e11b815260040160405180910390fd5b8d6001600160a01b0316857fd1d5c3c892c18716bd88852091d1b63dc6849e9d7c37f69d566884bf954d4bd98f8f8f8f8f8b6040516104b196959493929190610de8565b60405180910390a39d9c50505050505050505050505050565b60008383836040516020016104e193929190610e29565b6040516020818303038152906040528051906020012090509392505050565b6000546060906001600160a01b0316331461052e576040516374a2152760e01b815260040160405180910390fd5b600061053b8887876104ca565b60008181526002602052604090205490915060ff1661057057604051630995c9d560e01b8152600481018290526024016102c6565b606085156105b7578686604051610588929190610d6f565b6040519081900381206105a19187908790602001610d7f565b60405160208183030381529060405290506105f1565b84848080601f0160208091040260200160405190810160405280939291908181526020018383808284376000920191909152509293505050505b6000808a6001600160a01b03168a8460405161060d9190610da3565b60006040518083038185875af1925050503d806000811461064a576040519150601f19603f3d011682016040523d82523d6000602084013e61064f565b606091505b50915091508161067257604051636cda7c0f60e11b815260040160405180910390fd5b8a6001600160a01b0316847f2cb528e87067aee64979205906bad840abb13a304236826309ebc143405708488c8c8c8c8c426040516106b696959493929190610de8565b60405180910390a39a9950505050505050505050565b600080546001600160a01b031633146106f8576040516374a2152760e01b815260040160405180910390fd5b6107068787878787876108da565b6000818152600160208190526040909120549192500361073c57604051634ca8215f60e11b8152600481018290526024016102c6565b60008181526001602081905260409091205411156107705760405163bdf9f9cb60e01b8152600481018290526024016102c6565b818310158061077f5750428311155b156107ad5760405163078530ff60e51b815242600482015260248101849052604481018390526064016102c6565b60008181526001602081905260409182902055516001600160a01b0388169082907fb585f506691831d6796c7ca84009c0a0fe25582774d68de479ae6211ed0488cf90610803908a908a908a908a908a90610e57565b60405180910390a39695505050505050565b6000546001600160a01b03163314610840576040516374a2152760e01b815260040160405180910390fd5b600061084d8484846104ca565b60008181526002602052604090205490915060ff1661088257604051630995c9d560e01b8152600481018290526024016102c6565b60008181526002602052604090819020805460ff19169055517f0866d1d6ec25cef5fa9bce33d7520e4cd463a122e6cce955d8057baba5e4df87906108cc90869086908690610e29565b60405180910390a150505050565b60008686868686866040516020016108f796959493929190610e85565b6040516020818303038152906040528051906020012090509695505050505050565b6000546001600160a01b03163314610944576040516374a2152760e01b815260040160405180910390fd5b600081815260016020526040812054900361097557604051630995c9d560e01b8152600481018290526024016102c6565b60008181526001602081905260409091205411156109a95760405163bdf9f9cb60e01b8152600481018290526024016102c6565b6000818152600160205260408082208290555182917fe8d9861dbc9c663ed3accd261bbe2fe01e0d3d9e5f51fa38523b265c7757a93a91a250565b600080546001600160a01b03163314610a10576040516374a2152760e01b815260040160405180910390fd5b610a1b8484846104ca565b60008181526002602052604090205490915060ff1615610a5157604051634ca8215f60e11b8152600481018290526024016102c6565b60008181526002602052604090819020805460ff19166001179055516001600160a01b0385169082907f6701414cebfd9ade614f690c8735973398f90cb4152d3107643391a6a347122090610aa99087908790610ec2565b60405180910390a39392505050565b600060208284031215610aca57600080fd5b5035919050565b80356001600160a01b0381168114610ae857600080fd5b919050565b60008083601f840112610aff57600080fd5b50813567ffffffffffffffff811115610b1757600080fd5b602083019150836020828501011115610b2f57600080fd5b9250929050565b60008060008060008060008060c0898b031215610b5257600080fd5b610b5b89610ad1565b975060208901359650604089013567ffffffffffffffff80821115610b7f57600080fd5b610b8b8c838d01610aed565b909850965060608b0135915080821115610ba457600080fd5b50610bb18b828c01610aed565b999c989b5096999598969760808701359660a0013595509350505050565b60005b83811015610bea578181015183820152602001610bd2565b50506000910152565b6020815260008251806020840152610c12816040850160208701610bcf565b601f01601f19169190910160400192915050565b600080600060408486031215610c3b57600080fd5b610c4484610ad1565b9250602084013567ffffffffffffffff811115610c6057600080fd5b610c6c86828701610aed565b9497909650939450505050565b60008060008060008060808789031215610c9257600080fd5b610c9b87610ad1565b955060208701359450604087013567ffffffffffffffff80821115610cbf57600080fd5b610ccb8a838b01610aed565b90965094506060890135915080821115610ce457600080fd5b50610cf189828a01610aed565b979a9699509497509295939492505050565b60008060008060008060a08789031215610d1c57600080fd5b610d2587610ad1565b955060208701359450604087013567ffffffffffffffff811115610d4857600080fd5b610d5489828a01610aed565b979a9699509760608101359660809091013595509350505050565b8183823760009101908152919050565b6001600160e01b031984168152818360048301376000910160040190815292915050565b60008251610db5818460208701610bcf565b9190910192915050565b81835281816020850137506000828201602090810191909152601f909101601f19169091010190565b868152608060208201526000610e02608083018789610dbf565b8281036040840152610e15818688610dbf565b915050826060830152979650505050505050565b6001600160a01b0384168152604060208201819052600090610e4e9083018486610dbf565b95945050505050565b858152608060208201526000610e71608083018688610dbf565b604083019490945250606001529392505050565b60018060a01b038716815285602082015260a060408201526000610ead60a083018688610dbf565b60608301949094525060800152949350505050565b602081526000610ed6602083018486610dbf565b94935050505056fea264697066735822122022015b38b8b9334e9c5978f036bfcb069fe4b8081087817696d96920a06dafb564736f6c63430008150033","linkReferences":{}},"methodIdentifiers":{"cancel(bytes32)":"c4d252f5","cancelEmergency(address,string)":"994ead62","emergencyQueued(bytes32)":"4cc232d9","execute(address,uint256,string,bytes,uint256,uint256)":"2788c518","executeEmergency(address,uint256,string,bytes)":"6ae00723","getEmergencyTxId(address,string)":"56ea338f","getTxId(address,uint256,string,uint256,uint256)":"b724e9fd","owner()":"8da5cb5b","queue(address,uint256,string,uint256,uint256)":"6c102cef","queueEmergency(address,string)":"e65f5611","queued(bytes32)":"228250c9"},"id":1}