{"abi":[{"type":"constructor","inputs":[{"name":"minDelay","type":"uint256","internalType":"uint256"},{"name":"proposers","type":"address[]","internalType":"address[]"},{"name":"executors","type":"address[]","internalType":"address[]"},{"name":"admin","type":"address","internalType":"address"}],"stateMutability":"nonpayable"},{"type":"receive","stateMutability":"payable"},{"type":"function","name":"CANCELLER_ROLE","inputs":[],"outputs":[{"name":"","type":"bytes32","internalType":"bytes32"}],"stateMutability":"view"},{"type":"function","name":"DEFAULT_ADMIN_ROLE","inputs":[],"outputs":[{"name":"","type":"bytes32","internalType":"bytes32"}],"stateMutability":"view"},{"type":"function","name":"EMERGENCY_ROLE","inputs":[],"outputs":[{"name":"","type":"bytes32","internalType":"bytes32"}],"stateMutability":"view"},{"type":"function","name":"EXECUTOR_ROLE","inputs":[],"outputs":[{"name":"","type":"bytes32","internalType":"bytes32"}],"stateMutability":"view"},{"type":"function","name":"PROPOSER_ROLE","inputs":[],"outputs":[{"name":"","type":"bytes32","internalType":"bytes32"}],"stateMutability":"view"},{"type":"function","name":"TIMELOCK_ADMIN_ROLE","inputs":[],"outputs":[{"name":"","type":"bytes32","internalType":"bytes32"}],"stateMutability":"view"},{"type":"function","name":"addEmergencyCall","inputs":[{"name":"_target","type":"address","internalType":"address"},{"name":"_func","type":"string","internalType":"string"}],"outputs":[],"stateMutability":"nonpayable"},{"type":"function","name":"cancel","inputs":[{"name":"id","type":"bytes32","internalType":"bytes32"}],"outputs":[],"stateMutability":"nonpayable"},{"type":"function","name":"emergencyFuncById","inputs":[{"name":"","type":"bytes32","internalType":"bytes32"}],"outputs":[{"name":"","type":"bool","internalType":"bool"}],"stateMutability":"view"},{"type":"function","name":"execute","inputs":[{"name":"target","type":"address","internalType":"address"},{"name":"value","type":"uint256","internalType":"uint256"},{"name":"payload","type":"bytes","internalType":"bytes"},{"name":"predecessor","type":"bytes32","internalType":"bytes32"},{"name":"salt","type":"bytes32","internalType":"bytes32"}],"outputs":[],"stateMutability":"payable"},{"type":"function","name":"executeBatch","inputs":[{"name":"targets","type":"address[]","internalType":"address[]"},{"name":"values","type":"uint256[]","internalType":"uint256[]"},{"name":"payloads","type":"bytes[]","internalType":"bytes[]"},{"name":"predecessor","type":"bytes32","internalType":"bytes32"},{"name":"salt","type":"bytes32","internalType":"bytes32"}],"outputs":[],"stateMutability":"payable"},{"type":"function","name":"executeEmergency","inputs":[{"name":"_target","type":"address","internalType":"address"},{"name":"_value","type":"uint256","internalType":"uint256"},{"name":"_func","type":"string","internalType":"string"},{"name":"_data","type":"bytes","internalType":"bytes"}],"outputs":[{"name":"","type":"bytes","internalType":"bytes"}],"stateMutability":"payable"},{"type":"function","name":"getEmergencyFuncId","inputs":[{"name":"_target","type":"address","internalType":"address"},{"name":"_func","type":"string","internalType":"string"}],"outputs":[{"name":"","type":"bytes32","internalType":"bytes32"}],"stateMutability":"pure"},{"type":"function","name":"getMinDelay","inputs":[],"outputs":[{"name":"","type":"uint256","internalType":"uint256"}],"stateMutability":"view"},{"type":"function","name":"getRoleAdmin","inputs":[{"name":"role","type":"bytes32","internalType":"bytes32"}],"outputs":[{"name":"","type":"bytes32","internalType":"bytes32"}],"stateMutability":"view"},{"type":"function","name":"getTimestamp","inputs":[{"name":"id","type":"bytes32","internalType":"bytes32"}],"outputs":[{"name":"","type":"uint256","internalType":"uint256"}],"stateMutability":"view"},{"type":"function","name":"grantRole","inputs":[{"name":"role","type":"bytes32","internalType":"bytes32"},{"name":"account","type":"address","internalType":"address"}],"outputs":[],"stateMutability":"nonpayable"},{"type":"function","name":"hasEmergencyFunction","inputs":[{"name":"_target","type":"address","internalType":"address"},{"name":"_func","type":"string","internalType":"string"}],"outputs":[{"name":"","type":"bool","internalType":"bool"}],"stateMutability":"view"},{"type":"function","name":"hasRole","inputs":[{"name":"role","type":"bytes32","internalType":"bytes32"},{"name":"account","type":"address","internalType":"address"}],"outputs":[{"name":"","type":"bool","internalType":"bool"}],"stateMutability":"view"},{"type":"function","name":"hashOperation","inputs":[{"name":"target","type":"address","internalType":"address"},{"name":"value","type":"uint256","internalType":"uint256"},{"name":"data","type":"bytes","internalType":"bytes"},{"name":"predecessor","type":"bytes32","internalType":"bytes32"},{"name":"salt","type":"bytes32","internalType":"bytes32"}],"outputs":[{"name":"","type":"bytes32","internalType":"bytes32"}],"stateMutability":"pure"},{"type":"function","name":"hashOperationBatch","inputs":[{"name":"targets","type":"address[]","internalType":"address[]"},{"name":"values","type":"uint256[]","internalType":"uint256[]"},{"name":"payloads","type":"bytes[]","internalType":"bytes[]"},{"name":"predecessor","type":"bytes32","internalType":"bytes32"},{"name":"salt","type":"bytes32","internalType":"bytes32"}],"outputs":[{"name":"","type":"bytes32","internalType":"bytes32"}],"stateMutability":"pure"},{"type":"function","name":"isOperation","inputs":[{"name":"id","type":"bytes32","internalType":"bytes32"}],"outputs":[{"name":"","type":"bool","internalType":"bool"}],"stateMutability":"view"},{"type":"function","name":"isOperationDone","inputs":[{"name":"id","type":"bytes32","internalType":"bytes32"}],"outputs":[{"name":"","type":"bool","internalType":"bool"}],"stateMutability":"view"},{"type":"function","name":"isOperationPending","inputs":[{"name":"id","type":"bytes32","internalType":"bytes32"}],"outputs":[{"name":"","type":"bool","internalType":"bool"}],"stateMutability":"view"},{"type":"function","name":"isOperationReady","inputs":[{"name":"id","type":"bytes32","internalType":"bytes32"}],"outputs":[{"name":"","type":"bool","internalType":"bool"}],"stateMutability":"view"},{"type":"function","name":"onERC1155BatchReceived","inputs":[{"name":"","type":"address","internalType":"address"},{"name":"","type":"address","internalType":"address"},{"name":"","type":"uint256[]","internalType":"uint256[]"},{"name":"","type":"uint256[]","internalType":"uint256[]"},{"name":"","type":"bytes","internalType":"bytes"}],"outputs":[{"name":"","type":"bytes4","internalType":"bytes4"}],"stateMutability":"nonpayable"},{"type":"function","name":"onERC1155Received","inputs":[{"name":"","type":"address","internalType":"address"},{"name":"","type":"address","internalType":"address"},{"name":"","type":"uint256","internalType":"uint256"},{"name":"","type":"uint256","internalType":"uint256"},{"name":"","type":"bytes","internalType":"bytes"}],"outputs":[{"name":"","type":"bytes4","internalType":"bytes4"}],"stateMutability":"nonpayable"},{"type":"function","name":"onERC721Received","inputs":[{"name":"","type":"address","internalType":"address"},{"name":"","type":"address","internalType":"address"},{"name":"","type":"uint256","internalType":"uint256"},{"name":"","type":"bytes","internalType":"bytes"}],"outputs":[{"name":"","type":"bytes4","internalType":"bytes4"}],"stateMutability":"nonpayable"},{"type":"function","name":"removeEmergencyCall","inputs":[{"name":"_target","type":"address","internalType":"address"},{"name":"_func","type":"string","internalType":"string"}],"outputs":[],"stateMutability":"nonpayable"},{"type":"function","name":"renounceRole","inputs":[{"name":"role","type":"bytes32","internalType":"bytes32"},{"name":"account","type":"address","internalType":"address"}],"outputs":[],"stateMutability":"nonpayable"},{"type":"function","name":"revokeRole","inputs":[{"name":"role","type":"bytes32","internalType":"bytes32"},{"name":"account","type":"address","internalType":"address"}],"outputs":[],"stateMutability":"nonpayable"},{"type":"function","name":"schedule","inputs":[{"name":"target","type":"address","internalType":"address"},{"name":"value","type":"uint256","internalType":"uint256"},{"name":"data","type":"bytes","internalType":"bytes"},{"name":"predecessor","type":"bytes32","internalType":"bytes32"},{"name":"salt","type":"bytes32","internalType":"bytes32"},{"name":"delay","type":"uint256","internalType":"uint256"}],"outputs":[],"stateMutability":"nonpayable"},{"type":"function","name":"scheduleBatch","inputs":[{"name":"targets","type":"address[]","internalType":"address[]"},{"name":"values","type":"uint256[]","internalType":"uint256[]"},{"name":"payloads","type":"bytes[]","internalType":"bytes[]"},{"name":"predecessor","type":"bytes32","internalType":"bytes32"},{"name":"salt","type":"bytes32","internalType":"bytes32"},{"name":"delay","type":"uint256","internalType":"uint256"}],"outputs":[],"stateMutability":"nonpayable"},{"type":"function","name":"supportsInterface","inputs":[{"name":"interfaceId","type":"bytes4","internalType":"bytes4"}],"outputs":[{"name":"","type":"bool","internalType":"bool"}],"stateMutability":"view"},{"type":"function","name":"updateDelay","inputs":[{"name":"newDelay","type":"uint256","internalType":"uint256"}],"outputs":[],"stateMutability":"nonpayable"},{"type":"event","name":"AddEmergencyCall","inputs":[{"name":"id","type":"bytes32","indexed":true,"internalType":"bytes32"},{"name":"target","type":"address","indexed":true,"internalType":"address"},{"name":"func","type":"string","indexed":false,"internalType":"string"}],"anonymous":false},{"type":"event","name":"CallExecuted","inputs":[{"name":"id","type":"bytes32","indexed":true,"internalType":"bytes32"},{"name":"index","type":"uint256","indexed":true,"internalType":"uint256"},{"name":"target","type":"address","indexed":false,"internalType":"address"},{"name":"value","type":"uint256","indexed":false,"internalType":"uint256"},{"name":"data","type":"bytes","indexed":false,"internalType":"bytes"}],"anonymous":false},{"type":"event","name":"CallSalt","inputs":[{"name":"id","type":"bytes32","indexed":true,"internalType":"bytes32"},{"name":"salt","type":"bytes32","indexed":false,"internalType":"bytes32"}],"anonymous":false},{"type":"event","name":"CallScheduled","inputs":[{"name":"id","type":"bytes32","indexed":true,"internalType":"bytes32"},{"name":"index","type":"uint256","indexed":true,"internalType":"uint256"},{"name":"target","type":"address","indexed":false,"internalType":"address"},{"name":"value","type":"uint256","indexed":false,"internalType":"uint256"},{"name":"data","type":"bytes","indexed":false,"internalType":"bytes"},{"name":"predecessor","type":"bytes32","indexed":false,"internalType":"bytes32"},{"name":"delay","type":"uint256","indexed":false,"internalType":"uint256"}],"anonymous":false},{"type":"event","name":"Cancelled","inputs":[{"name":"id","type":"bytes32","indexed":true,"internalType":"bytes32"}],"anonymous":false},{"type":"event","name":"ExecuteEmergencyCall","inputs":[{"name":"id","type":"bytes32","indexed":true,"internalType":"bytes32"},{"name":"target","type":"address","indexed":true,"internalType":"address"},{"name":"value","type":"uint256","indexed":false,"internalType":"uint256"},{"name":"func","type":"string","indexed":false,"internalType":"string"},{"name":"data","type":"bytes","indexed":false,"internalType":"bytes"},{"name":"timestamp","type":"uint256","indexed":false,"internalType":"uint256"}],"anonymous":false},{"type":"event","name":"MinDelayChange","inputs":[{"name":"oldDuration","type":"uint256","indexed":false,"internalType":"uint256"},{"name":"newDuration","type":"uint256","indexed":false,"internalType":"uint256"}],"anonymous":false},{"type":"event","name":"RemoveEmergencyCall","inputs":[{"name":"id","type":"bytes32","indexed":true,"internalType":"bytes32"},{"name":"target","type":"address","indexed":true,"internalType":"address"},{"name":"func","type":"string","indexed":false,"internalType":"string"}],"anonymous":false},{"type":"event","name":"RoleAdminChanged","inputs":[{"name":"role","type":"bytes32","indexed":true,"internalType":"bytes32"},{"name":"previousAdminRole","type":"bytes32","indexed":true,"internalType":"bytes32"},{"name":"newAdminRole","type":"bytes32","indexed":true,"internalType":"bytes32"}],"anonymous":false},{"type":"event","name":"RoleGranted","inputs":[{"name":"role","type":"bytes32","indexed":true,"internalType":"bytes32"},{"name":"account","type":"address","indexed":true,"internalType":"address"},{"name":"sender","type":"address","indexed":true,"internalType":"address"}],"anonymous":false},{"type":"event","name":"RoleRevoked","inputs":[{"name":"role","type":"bytes32","indexed":true,"internalType":"bytes32"},{"name":"account","type":"address","indexed":true,"internalType":"address"},{"name":"sender","type":"address","indexed":true,"internalType":"address"}],"anonymous":false},{"type":"error","name":"EmergencyCallExists","inputs":[{"name":"id","type":"bytes32","internalType":"bytes32"}]},{"type":"error","name":"EmergencyCallNotExists","inputs":[{"name":"id","type":"bytes32","internalType":"bytes32"}]},{"type":"error","name":"TxFailedError","inputs":[]}],"bytecode":{"object":"0x60806040523480156200001157600080fd5b5060405162002ab138038062002ab183398101604081905262000034916200045b565b838383836200005360008051602062002a318339815191528062000280565b6200007d60008051602062002a5183398151915260008051602062002a3183398151915262000280565b620000a760008051602062002a7183398151915260008051602062002a3183398151915262000280565b620000d160008051602062002a9183398151915260008051602062002a3183398151915262000280565b620000ec60008051602062002a3183398151915230620002cb565b6001600160a01b0381161562000117576200011760008051602062002a3183398151915282620002cb565b60005b83518110156200019d576200016160008051602062002a518339815191528583815181106200014d576200014d620004e2565b6020026020010151620002cb60201b60201c565b6200018a60008051602062002a918339815191528583815181106200014d576200014d620004e2565b6200019581620004f8565b90506200011a565b5060005b8251811015620001e757620001d460008051602062002a718339815191528483815181106200014d576200014d620004e2565b620001df81620004f8565b9050620001a1565b5060028490556040805160008152602081018690527f11c24f4ead16507c69ac467fbd5e4eed5fb5c699626d2cc6d66421df253886d5910160405180910390a1505050506200025b60008051602062002a1183398151915260008051602062002a318339815191526200028060201b60201c565b6200027660008051602062002a1183398151915282620002cb565b5050505062000520565b600082815260208190526040808220600101805490849055905190918391839186917fbd79b86ffe0ab8e8776151514217cd7cacd52c909f66475c3af44e129f0b00ff9190a4505050565b620002d78282620002db565b5050565b6000828152602081815260408083206001600160a01b038516845290915290205460ff16620002d7576000828152602081815260408083206001600160a01b03851684529091529020805460ff19166001179055620003373390565b6001600160a01b0316816001600160a01b0316837f2f8788117e7eff1d82e926ec794901d17c78024a50270940304540a733656f0d60405160405180910390a45050565b634e487b7160e01b600052604160045260246000fd5b80516001600160a01b0381168114620003a957600080fd5b919050565b600082601f830112620003c057600080fd5b815160206001600160401b0380831115620003df57620003df6200037b565b8260051b604051601f19603f830116810181811084821117156200040757620004076200037b565b6040529384528581018301938381019250878511156200042657600080fd5b83870191505b848210156200045057620004408262000391565b835291830191908301906200042c565b979650505050505050565b600080600080608085870312156200047257600080fd5b845160208601519094506001600160401b03808211156200049257600080fd5b620004a088838901620003ae565b94506040870151915080821115620004b757600080fd5b50620004c687828801620003ae565b925050620004d76060860162000391565b905092959194509250565b634e487b7160e01b600052603260045260246000fd5b6000600182016200051957634e487b7160e01b600052601160045260246000fd5b5060010190565b6124e180620005306000396000f3fe6080604052600436106102085760003560e01c80636c13480d11610118578063bc197c81116100a0578063d547741f1161006f578063d547741f146106a3578063e38335e5146106c3578063e6f1bdc8146106d6578063f23a6e6114610706578063f27a0c921461073257600080fd5b8063bc197c811461060a578063c4d252f514610636578063cdab95e614610656578063d45c44351461067657600080fd5b806391d14854116100e757806391d1485414610561578063a217fddf14610581578063a47e6b8d14610596578063b08e51c0146105b6578063b1c5f427146105ea57600080fd5b80636c13480d146104cd5780638065657f146104ed5780638f2a0bb01461050d5780638f61f4f51461052d57600080fd5b8063248a9ca31161019b578063329d4c9b1161016a578063329d4c9b1461042d57806336568abe1461044d578063584b153e1461046d57806364d623531461048d5780636ae00723146104ad57600080fd5b8063248a9ca31461038c5780632ab0f529146103bc5780632f2ff15d146103ed57806331d507501461040d57600080fd5b8063134008d3116101d7578063134008d3146102e157806313bc9f20146102f4578063150b7a021461031457806320df43591461035857600080fd5b806301d5062a1461021457806301ffc9a71461023657806307bd02651461026b5780630d3cf6fc146102ad57600080fd5b3661020f57005b600080fd5b34801561022057600080fd5b5061023461022f366004611901565b610747565b005b34801561024257600080fd5b50610256610251366004611975565b61081d565b60405190151581526020015b60405180910390f35b34801561027757600080fd5b5061029f7fd8aa0f3194971a2a116679f7c2090f6939c8d4e01a2a8d7e41d55e5351469e6381565b604051908152602001610262565b3480156102b957600080fd5b5061029f7f5f58e3a2316349923ce3780f8d587db2d72378aed66a8261c916544fa6846ca581565b6102346102ef36600461199f565b610848565b34801561030057600080fd5b5061025661030f366004611a0a565b6108fd565b34801561032057600080fd5b5061033f61032f366004611ad8565b630a85bd0160e11b949350505050565b6040516001600160e01b03199091168152602001610262565b34801561036457600080fd5b5061029f7fbf233dd2aafeb4d50879c4aa5c81e96d92f6e6945c906a58f9f2d1c1631b4b2681565b34801561039857600080fd5b5061029f6103a7366004611a0a565b60009081526020819052604090206001015490565b3480156103c857600080fd5b506102566103d7366004611a0a565b6000908152600160208190526040909120541490565b3480156103f957600080fd5b50610234610408366004611b3f565b610923565b34801561041957600080fd5b50610256610428366004611a0a565b61094d565b34801561043957600080fd5b50610234610448366004611b6b565b610966565b34801561045957600080fd5b50610234610468366004611b3f565b610a33565b34801561047957600080fd5b50610256610488366004611a0a565b610ab1565b34801561049957600080fd5b506102346104a8366004611a0a565b610ac7565b6104c06104bb366004611bbd565b610b27565b6040516102629190611c96565b3480156104d957600080fd5b506102346104e8366004611b6b565b610cf2565b3480156104f957600080fd5b5061029f61050836600461199f565b610dac565b34801561051957600080fd5b50610234610528366004611ced565b610deb565b34801561053957600080fd5b5061029f7fb09aa5aeb3702cfd50b6b62bc4532604938f21248a27a1d5ca736082b6819cc181565b34801561056d57600080fd5b5061025661057c366004611b3f565b610f7e565b34801561058d57600080fd5b5061029f600081565b3480156105a257600080fd5b5061029f6105b1366004611b6b565b610fa7565b3480156105c257600080fd5b5061029f7ffd643c72710c63c0180259aba6b2d05451e3591a24e58b62239378085726f78381565b3480156105f657600080fd5b5061029f610605366004611d9e565b610fdd565b34801561061657600080fd5b5061033f610625366004611ec5565b63bc197c8160e01b95945050505050565b34801561064257600080fd5b50610234610651366004611a0a565b611022565b34801561066257600080fd5b50610256610671366004611b6b565b6110f7565b34801561068257600080fd5b5061029f610691366004611a0a565b60009081526001602052604090205490565b3480156106af57600080fd5b506102346106be366004611b3f565b611126565b6102346106d1366004611d9e565b61114b565b3480156106e257600080fd5b506102566106f1366004611a0a565b60036020526000908152604090205460ff1681565b34801561071257600080fd5b5061033f610721366004611f6e565b63f23a6e6160e01b95945050505050565b34801561073e57600080fd5b5060025461029f565b7fb09aa5aeb3702cfd50b6b62bc4532604938f21248a27a1d5ca736082b6819cc1610771816112d5565b6000610781898989898989610dac565b905061078d81846112e2565b6000817f4cf4410cc57040e44862ef0f45f3dd5a5e02db8eb8add648d4b0e236f1d07dca8b8b8b8b8b8a6040516107c996959493929190611ffb565b60405180910390a3831561081257807f20fda5fd27a1ea7bf5b9567f143ac5470bb059374a27e8f67cb44f946f6d03878560405161080991815260200190565b60405180910390a25b505050505050505050565b60006001600160e01b03198216630271189760e51b14806108425750610842826113d1565b92915050565b7fd8aa0f3194971a2a116679f7c2090f6939c8d4e01a2a8d7e41d55e5351469e63610874816000610f7e565b610882576108828133611406565b6000610892888888888888610dac565b905061089e818561145f565b6108aa888888886114fb565b6000817fc2617efa69bab66782fa219543714338489c4e9e178271560a91b82c3f612b588a8a8a8a6040516108e29493929190612038565b60405180910390a36108f3816115ce565b5050505050505050565b60008181526001602052604081205460018111801561091c5750428111155b9392505050565b60008281526020819052604090206001015461093e816112d5565b6109488383611607565b505050565b60008181526001602052604081205481905b1192915050565b33301461098e5760405162461bcd60e51b81526004016109859061206a565b60405180910390fd5b600061099b848484610fa7565b60008181526003602052604090205490915060ff166109d05760405163cdfdac3f60e01b815260048101829052602401610985565b60008181526003602052604090819020805460ff19169055516001600160a01b0385169082907ff515547ac3c1e718617318b43fe1f223f64a3d9abfc4be2ee5faadde870f083e90610a2590879087906120b5565b60405180910390a350505050565b6001600160a01b0381163314610aa35760405162461bcd60e51b815260206004820152602f60248201527f416363657373436f6e74726f6c3a2063616e206f6e6c792072656e6f756e636560448201526e103937b632b9903337b91039b2b63360891b6064820152608401610985565b610aad828261168b565b5050565b600081815260016020819052604082205461095f565b333014610ae65760405162461bcd60e51b81526004016109859061206a565b60025460408051918252602082018390527f11c24f4ead16507c69ac467fbd5e4eed5fb5c699626d2cc6d66421df253886d5910160405180910390a1600255565b60607fbf233dd2aafeb4d50879c4aa5c81e96d92f6e6945c906a58f9f2d1c1631b4b26610b53816112d5565b6000610b60898888610fa7565b60008181526003602052604090205490915060ff16610b955760405163cdfdac3f60e01b815260048101829052602401610985565b60608615610bdc578787604051610bad9291906120d1565b604051908190038120610bc691889088906020016120e1565b6040516020818303038152906040529050610c16565b85858080601f0160208091040260200160405190810160405280939291908181526020018383808284376000920191909152509293505050505b6000808b6001600160a01b03168b84604051610c329190612105565b60006040518083038185875af1925050503d8060008114610c6f576040519150601f19603f3d011682016040523d82523d6000602084013e610c74565b606091505b509150915081610c9757604051636cda7c0f60e11b815260040160405180910390fd5b8b6001600160a01b0316847f2c650e81ec90b7038cec9a11731cb8a473930f0566c6d06c1d78e56db732df0f8d8d8d8d8d42604051610cdb96959493929190612121565b60405180910390a39b9a5050505050505050505050565b333014610d115760405162461bcd60e51b81526004016109859061206a565b6000610d1e848484610fa7565b60008181526003602052604090205490915060ff1615610d5457604051636e36c9f160e01b815260048101829052602401610985565b60008181526003602052604090819020805460ff19166001179055516001600160a01b0385169082907f45c7be9ae2f1f7a411b557739b467d03ad93182bf920117745e80d9cb0a0d45590610a2590879087906120b5565b6000868686868686604051602001610dc996959493929190611ffb565b6040516020818303038152906040528051906020012090509695505050505050565b7fb09aa5aeb3702cfd50b6b62bc4532604938f21248a27a1d5ca736082b6819cc1610e15816112d5565b888714610e345760405162461bcd60e51b815260040161098590612162565b888514610e535760405162461bcd60e51b815260040161098590612162565b6000610e658b8b8b8b8b8b8b8b610fdd565b9050610e7181846112e2565b60005b8a811015610f2f5780827f4cf4410cc57040e44862ef0f45f3dd5a5e02db8eb8add648d4b0e236f1d07dca8e8e85818110610eb157610eb16121a5565b9050602002016020810190610ec691906121bb565b8d8d86818110610ed857610ed86121a5565b905060200201358c8c87818110610ef157610ef16121a5565b9050602002810190610f0391906121d6565b8c8b604051610f1796959493929190611ffb565b60405180910390a3610f2881612232565b9050610e74565b508315610f7157807f20fda5fd27a1ea7bf5b9567f143ac5470bb059374a27e8f67cb44f946f6d038785604051610f6891815260200190565b60405180910390a25b5050505050505050505050565b6000918252602082815260408084206001600160a01b0393909316845291905290205460ff1690565b6000838383604051602001610fbe9392919061224b565b6040516020818303038152906040528051906020012090509392505050565b60008888888888888888604051602001610ffe98979695949392919061230a565b60405160208183030381529060405280519060200120905098975050505050505050565b7ffd643c72710c63c0180259aba6b2d05451e3591a24e58b62239378085726f78361104c816112d5565b61105582610ab1565b6110bb5760405162461bcd60e51b815260206004820152603160248201527f54696d656c6f636b436f6e74726f6c6c65723a206f7065726174696f6e2063616044820152701b9b9bdd0818994818d85b98d95b1b1959607a1b6064820152608401610985565b6000828152600160205260408082208290555183917fbaa1eb22f2a492ba1a5fea61b8df4d27c6c8b5f3971e63bb58fa14ff72eedb7091a25050565b600080611105858585610fa7565b60009081526003602052604090205460ff1615156001149150509392505050565b600082815260208190526040902060010154611141816112d5565b610948838361168b565b7fd8aa0f3194971a2a116679f7c2090f6939c8d4e01a2a8d7e41d55e5351469e63611177816000610f7e565b611185576111858133611406565b8786146111a45760405162461bcd60e51b815260040161098590612162565b8784146111c35760405162461bcd60e51b815260040161098590612162565b60006111d58a8a8a8a8a8a8a8a610fdd565b90506111e1818561145f565b60005b898110156112bf5760008b8b83818110611200576112006121a5565b905060200201602081019061121591906121bb565b905060008a8a8481811061122b5761122b6121a5565b9050602002013590503660008a8a86818110611249576112496121a5565b905060200281019061125b91906121d6565b9150915061126b848484846114fb565b84867fc2617efa69bab66782fa219543714338489c4e9e178271560a91b82c3f612b58868686866040516112a29493929190612038565b60405180910390a350505050806112b890612232565b90506111e4565b506112c9816115ce565b50505050505050505050565b6112df8133611406565b50565b6112eb8261094d565b156113505760405162461bcd60e51b815260206004820152602f60248201527f54696d656c6f636b436f6e74726f6c6c65723a206f7065726174696f6e20616c60448201526e1c9958591e481cd8da19591d5b1959608a1b6064820152608401610985565b6002548110156113b15760405162461bcd60e51b815260206004820152602660248201527f54696d656c6f636b436f6e74726f6c6c65723a20696e73756666696369656e746044820152652064656c617960d01b6064820152608401610985565b6113bb81426123ab565b6000928352600160205260409092209190915550565b60006001600160e01b03198216637965db0b60e01b148061084257506301ffc9a760e01b6001600160e01b0319831614610842565b6114108282610f7e565b610aad5761141d816116f0565b611428836020611702565b6040516020016114399291906123be565b60408051601f198184030181529082905262461bcd60e51b825261098591600401611c96565b611468826108fd565b6114845760405162461bcd60e51b815260040161098590612433565b8015806114a05750600081815260016020819052604090912054145b610aad5760405162461bcd60e51b815260206004820152602660248201527f54696d656c6f636b436f6e74726f6c6c65723a206d697373696e6720646570656044820152656e64656e637960d01b6064820152608401610985565b6000846001600160a01b03168484846040516115189291906120d1565b60006040518083038185875af1925050503d8060008114611555576040519150601f19603f3d011682016040523d82523d6000602084013e61155a565b606091505b50509050806115c75760405162461bcd60e51b815260206004820152603360248201527f54696d656c6f636b436f6e74726f6c6c65723a20756e6465726c79696e6720746044820152721c985b9cd858dd1a5bdb881c995d995c9d1959606a1b6064820152608401610985565b5050505050565b6115d7816108fd565b6115f35760405162461bcd60e51b815260040161098590612433565b600090815260016020819052604090912055565b6116118282610f7e565b610aad576000828152602081815260408083206001600160a01b03851684529091529020805460ff191660011790556116473390565b6001600160a01b0316816001600160a01b0316837f2f8788117e7eff1d82e926ec794901d17c78024a50270940304540a733656f0d60405160405180910390a45050565b6116958282610f7e565b15610aad576000828152602081815260408083206001600160a01b0385168085529252808320805460ff1916905551339285917ff6391f5c32d9c69d2a47ea670b442974b53935d1edc7fd64eb21e047a839171b9190a45050565b60606108426001600160a01b03831660145b6060600061171183600261247d565b61171c9060026123ab565b6001600160401b0381111561173357611733611a23565b6040519080825280601f01601f19166020018201604052801561175d576020820181803683370190505b509050600360fc1b81600081518110611778576117786121a5565b60200101906001600160f81b031916908160001a905350600f60fb1b816001815181106117a7576117a76121a5565b60200101906001600160f81b031916908160001a90535060006117cb84600261247d565b6117d69060016123ab565b90505b600181111561184e576f181899199a1a9b1b9c1cb0b131b232b360811b85600f166010811061180a5761180a6121a5565b1a60f81b828281518110611820576118206121a5565b60200101906001600160f81b031916908160001a90535060049490941c9361184781612494565b90506117d9565b50831561091c5760405162461bcd60e51b815260206004820181905260248201527f537472696e67733a20686578206c656e67746820696e73756666696369656e746044820152606401610985565b80356001600160a01b03811681146118b457600080fd5b919050565b60008083601f8401126118cb57600080fd5b5081356001600160401b038111156118e257600080fd5b6020830191508360208285010111156118fa57600080fd5b9250929050565b600080600080600080600060c0888a03121561191c57600080fd5b6119258861189d565b96506020880135955060408801356001600160401b0381111561194757600080fd5b6119538a828b016118b9565b989b979a50986060810135976080820135975060a09091013595509350505050565b60006020828403121561198757600080fd5b81356001600160e01b03198116811461091c57600080fd5b60008060008060008060a087890312156119b857600080fd5b6119c18761189d565b95506020870135945060408701356001600160401b038111156119e357600080fd5b6119ef89828a016118b9565b979a9699509760608101359660809091013595509350505050565b600060208284031215611a1c57600080fd5b5035919050565b634e487b7160e01b600052604160045260246000fd5b604051601f8201601f191681016001600160401b0381118282101715611a6157611a61611a23565b604052919050565b600082601f830112611a7a57600080fd5b81356001600160401b03811115611a9357611a93611a23565b611aa6601f8201601f1916602001611a39565b818152846020838601011115611abb57600080fd5b816020850160208301376000918101602001919091529392505050565b60008060008060808587031215611aee57600080fd5b611af78561189d565b9350611b056020860161189d565b92506040850135915060608501356001600160401b03811115611b2757600080fd5b611b3387828801611a69565b91505092959194509250565b60008060408385031215611b5257600080fd5b82359150611b626020840161189d565b90509250929050565b600080600060408486031215611b8057600080fd5b611b898461189d565b925060208401356001600160401b03811115611ba457600080fd5b611bb0868287016118b9565b9497909650939450505050565b60008060008060008060808789031215611bd657600080fd5b611bdf8761189d565b95506020870135945060408701356001600160401b0380821115611c0257600080fd5b611c0e8a838b016118b9565b90965094506060890135915080821115611c2757600080fd5b50611c3489828a016118b9565b979a9699509497509295939492505050565b60005b83811015611c61578181015183820152602001611c49565b50506000910152565b60008151808452611c82816020860160208601611c46565b601f01601f19169290920160200192915050565b60208152600061091c6020830184611c6a565b60008083601f840112611cbb57600080fd5b5081356001600160401b03811115611cd257600080fd5b6020830191508360208260051b85010111156118fa57600080fd5b600080600080600080600080600060c08a8c031215611d0b57600080fd5b89356001600160401b0380821115611d2257600080fd5b611d2e8d838e01611ca9565b909b50995060208c0135915080821115611d4757600080fd5b611d538d838e01611ca9565b909950975060408c0135915080821115611d6c57600080fd5b50611d798c828d01611ca9565b9a9d999c50979a969997986060880135976080810135975060a0013595509350505050565b60008060008060008060008060a0898b031215611dba57600080fd5b88356001600160401b0380821115611dd157600080fd5b611ddd8c838d01611ca9565b909a50985060208b0135915080821115611df657600080fd5b611e028c838d01611ca9565b909850965060408b0135915080821115611e1b57600080fd5b50611e288b828c01611ca9565b999c989b509699959896976060870135966080013595509350505050565b600082601f830112611e5757600080fd5b813560206001600160401b03821115611e7257611e72611a23565b8160051b611e81828201611a39565b9283528481018201928281019087851115611e9b57600080fd5b83870192505b84831015611eba57823582529183019190830190611ea1565b979650505050505050565b600080600080600060a08688031215611edd57600080fd5b611ee68661189d565b9450611ef46020870161189d565b935060408601356001600160401b0380821115611f1057600080fd5b611f1c89838a01611e46565b94506060880135915080821115611f3257600080fd5b611f3e89838a01611e46565b93506080880135915080821115611f5457600080fd5b50611f6188828901611a69565b9150509295509295909350565b600080600080600060a08688031215611f8657600080fd5b611f8f8661189d565b9450611f9d6020870161189d565b9350604086013592506060860135915060808601356001600160401b03811115611fc657600080fd5b611f6188828901611a69565b81835281816020850137506000828201602090810191909152601f909101601f19169091010190565b60018060a01b038716815285602082015260a06040820152600061202360a083018688611fd2565b60608301949094525060800152949350505050565b60018060a01b0385168152836020820152606060408201526000612060606083018486611fd2565b9695505050505050565b6020808252602b908201527f54696d656c6f636b436f6e74726f6c6c65723a2063616c6c6572206d7573742060408201526a62652074696d656c6f636b60a81b606082015260800190565b6020815260006120c9602083018486611fd2565b949350505050565b8183823760009101908152919050565b6001600160e01b031984168152818360048301376000910160040190815292915050565b60008251612117818460208701611c46565b9190910192915050565b86815260806020820152600061213b608083018789611fd2565b828103604084015261214e818688611fd2565b915050826060830152979650505050505050565b60208082526023908201527f54696d656c6f636b436f6e74726f6c6c65723a206c656e677468206d69736d616040820152620e8c6d60eb1b606082015260800190565b634e487b7160e01b600052603260045260246000fd5b6000602082840312156121cd57600080fd5b61091c8261189d565b6000808335601e198436030181126121ed57600080fd5b8301803591506001600160401b0382111561220757600080fd5b6020019150368190038213156118fa57600080fd5b634e487b7160e01b600052601160045260246000fd5b6000600182016122445761224461221c565b5060010190565b6001600160a01b03841681526040602082018190526000906122709083018486611fd2565b95945050505050565b81835260006020808501808196508560051b810191508460005b878110156122fd5782840389528135601e198836030181126122b457600080fd5b870185810190356001600160401b038111156122cf57600080fd5b8036038213156122de57600080fd5b6122e9868284611fd2565b9a87019a9550505090840190600101612293565b5091979650505050505050565b60a0808252810188905260008960c08301825b8b81101561234b576001600160a01b036123368461189d565b1682526020928301929091019060010161231d565b5083810360208501528881526001600160fb1b0389111561236b57600080fd5b8860051b9150818a602083013701828103602090810160408501526123939082018789612279565b60608401959095525050608001529695505050505050565b808201808211156108425761084261221c565b7f416363657373436f6e74726f6c3a206163636f756e74200000000000000000008152600083516123f6816017850160208801611c46565b7001034b99036b4b9b9b4b733903937b6329607d1b6017918401918201528351612427816028840160208801611c46565b01602801949350505050565b6020808252602a908201527f54696d656c6f636b436f6e74726f6c6c65723a206f7065726174696f6e206973604082015269206e6f7420726561647960b01b606082015260800190565b80820281158282048414176108425761084261221c565b6000816124a3576124a361221c565b50600019019056fea26469706673582212204cf204f8d2cae7fad7bab83aac135fb2daffe392f84b217e47fb9bd6e70a4ceb64736f6c63430008150033bf233dd2aafeb4d50879c4aa5c81e96d92f6e6945c906a58f9f2d1c1631b4b265f58e3a2316349923ce3780f8d587db2d72378aed66a8261c916544fa6846ca5b09aa5aeb3702cfd50b6b62bc4532604938f21248a27a1d5ca736082b6819cc1d8aa0f3194971a2a116679f7c2090f6939c8d4e01a2a8d7e41d55e5351469e63fd643c72710c63c0180259aba6b2d05451e3591a24e58b62239378085726f783","linkReferences":{}},"methodIdentifiers":{"CANCELLER_ROLE()":"b08e51c0","DEFAULT_ADMIN_ROLE()":"a217fddf","EMERGENCY_ROLE()":"20df4359","EXECUTOR_ROLE()":"07bd0265","PROPOSER_ROLE()":"8f61f4f5","TIMELOCK_ADMIN_ROLE()":"0d3cf6fc","addEmergencyCall(address,string)":"6c13480d","cancel(bytes32)":"c4d252f5","emergencyFuncById(bytes32)":"e6f1bdc8","execute(address,uint256,bytes,bytes32,bytes32)":"134008d3","executeBatch(address[],uint256[],bytes[],bytes32,bytes32)":"e38335e5","executeEmergency(address,uint256,string,bytes)":"6ae00723","getEmergencyFuncId(address,string)":"a47e6b8d","getMinDelay()":"f27a0c92","getRoleAdmin(bytes32)":"248a9ca3","getTimestamp(bytes32)":"d45c4435","grantRole(bytes32,address)":"2f2ff15d","hasEmergencyFunction(address,string)":"cdab95e6","hasRole(bytes32,address)":"91d14854","hashOperation(address,uint256,bytes,bytes32,bytes32)":"8065657f","hashOperationBatch(address[],uint256[],bytes[],bytes32,bytes32)":"b1c5f427","isOperation(bytes32)":"31d50750","isOperationDone(bytes32)":"2ab0f529","isOperationPending(bytes32)":"584b153e","isOperationReady(bytes32)":"13bc9f20","onERC1155BatchReceived(address,address,uint256[],uint256[],bytes)":"bc197c81","onERC1155Received(address,address,uint256,uint256,bytes)":"f23a6e61","onERC721Received(address,address,uint256,bytes)":"150b7a02","removeEmergencyCall(address,string)":"329d4c9b","renounceRole(bytes32,address)":"36568abe","revokeRole(bytes32,address)":"d547741f","schedule(address,uint256,bytes,bytes32,bytes32,uint256)":"01d5062a","scheduleBatch(address[],uint256[],bytes[],bytes32,bytes32,uint256)":"8f2a0bb0","supportsInterface(bytes4)":"01ffc9a7","updateDelay(uint256)":"64d62353"},"id":0}